{
  "contractName": "Hellos",
  "abi": [
    {
      "constant": true,
      "inputs": [],
      "name": "getHellos",
      "outputs": [
        {
          "name": "",
          "type": "uint256"
        }
      ],
      "payable": false,
      "stateMutability": "view",
      "type": "function"
    },
    {
      "constant": false,
      "inputs": [],
      "name": "sayHello",
      "outputs": [],
      "payable": false,
      "stateMutability": "nonpayable",
      "type": "function"
    },
    {
      "constant": true,
      "inputs": [
        {
          "name": "",
          "type": "address"
        }
      ],
      "name": "hellos",
      "outputs": [
        {
          "name": "",
          "type": "uint256"
        }
      ],
      "payable": false,
      "stateMutability": "view",
      "type": "function"
    }
  ],
  "bytecode": "0x6060604052341561000f57600080fd5b6101c08061001e6000396000f300606060405260043610610057576000357c0100000000000000000000000000000000000000000000000000000000900463ffffffff16806365bb031f1461005c578063ef5fb05b14610085578063f1c95bba1461009a575b600080fd5b341561006757600080fd5b61006f6100e7565b6040518082815260200191505060405180910390f35b341561009057600080fd5b61009861012d565b005b34156100a557600080fd5b6100d1600480803573ffffffffffffffffffffffffffffffffffffffff1690602001909190505061017c565b6040518082815260200191505060405180910390f35b60008060003373ffffffffffffffffffffffffffffffffffffffff1673ffffffffffffffffffffffffffffffffffffffff16815260200190815260200160002054905090565b60016000803373ffffffffffffffffffffffffffffffffffffffff1673ffffffffffffffffffffffffffffffffffffffff16815260200190815260200160002060008282540192505081905550565b600060205280600052604060002060009150905054815600a165627a7a72305820dc6b60c56c2721e9be56d587423d1eb2fb08c2924d2fb059563d430c0f231e210029",
  "source": "pragma solidity ^0.4.18;\n\ncontract Hellos {\n  mapping (address => uint) public hellos;\n\n  function sayHello() public {\n    hellos[msg.sender] += 1;\n  }\n\n  function getHellos() public view returns (uint) {\n      return hellos[msg.sender];\n  }\n}\n",
  "sourcePath": "/home/toddmohney/workspace/personal/coincoincoin/hello/contracts/contracts/Hellos.sol",
  "compiler": {
    "name": "solc",
    "version": "0.4.18+commit.9cf6e910.Emscripten.clang"
  },
  "schemaVersion": "1.0.1",
  "updatedAt": "2017-12-05T19:13:13.773Z"
}